{
  "_format": "hh-sol-artifact-1",
  "contractName": "Voting",
  "sourceName": "contracts/Voting.sol",
  "abi": [
    {
      "inputs": [
        {
          "internalType": "string[]",
          "name": "_candidateNames",
          "type": "string[]"
        }
      ],
      "stateMutability": "nonpayable",
      "type": "constructor"
    },
    {
      "anonymous": false,
      "inputs": [
        {
          "indexed": true,
          "internalType": "uint256",
          "name": "candidateId",
          "type": "uint256"
        },
        {
          "indexed": false,
          "internalType": "string",
          "name": "userId",
          "type": "string"
        }
      ],
      "name": "Voted",
      "type": "event"
    },
    {
      "inputs": [],
      "name": "admin",
      "outputs": [
        {
          "internalType": "address",
          "name": "",
          "type": "address"
        }
      ],
      "stateMutability": "view",
      "type": "function"
    },
    {
      "inputs": [
        {
          "internalType": "uint256",
          "name": "",
          "type": "uint256"
        }
      ],
      "name": "candidates",
      "outputs": [
        {
          "internalType": "uint256",
          "name": "id",
          "type": "uint256"
        },
        {
          "internalType": "string",
          "name": "name",
          "type": "string"
        },
        {
          "internalType": "uint256",
          "name": "voteCount",
          "type": "uint256"
        }
      ],
      "stateMutability": "view",
      "type": "function"
    },
    {
      "inputs": [],
      "name": "candidatesCount",
      "outputs": [
        {
          "internalType": "uint256",
          "name": "",
          "type": "uint256"
        }
      ],
      "stateMutability": "view",
      "type": "function"
    },
    {
      "inputs": [],
      "name": "getAllCandidates",
      "outputs": [
        {
          "components": [
            {
              "internalType": "uint256",
              "name": "id",
              "type": "uint256"
            },
            {
              "internalType": "string",
              "name": "name",
              "type": "string"
            },
            {
              "internalType": "uint256",
              "name": "voteCount",
              "type": "uint256"
            }
          ],
          "internalType": "struct Voting.Candidate[]",
          "name": "",
          "type": "tuple[]"
        }
      ],
      "stateMutability": "view",
      "type": "function"
    },
    {
      "inputs": [
        {
          "internalType": "uint256",
          "name": "_candidateId",
          "type": "uint256"
        },
        {
          "internalType": "string",
          "name": "_userId",
          "type": "string"
        }
      ],
      "name": "vote",
      "outputs": [],
      "stateMutability": "nonpayable",
      "type": "function"
    },
    {
      "inputs": [
        {
          "internalType": "string",
          "name": "",
          "type": "string"
        }
      ],
      "name": "voters",
      "outputs": [
        {
          "internalType": "bool",
          "name": "hasVoted",
          "type": "bool"
        },
        {
          "internalType": "uint256",
          "name": "votedCandidateId",
          "type": "uint256"
        }
      ],
      "stateMutability": "view",
      "type": "function"
    }
  ],
  "bytecode": "0x60806040523480156200001157600080fd5b50604051620015a5380380620015a58339818101604052810190620000379190620003c3565b336000806101000a81548173ffffffffffffffffffffffffffffffffffffffff021916908373ffffffffffffffffffffffffffffffffffffffff16021790555060005b8151811015620001245760026040518060600160405280838152602001848481518110620000ad57620000ac62000414565b5b60200260200101518152602001600081525090806001815401808255809150506001900390600052602060002090600302016000909190919091506000820151816000015560208201518160010190816200010991906200068e565b5060408201518160020155505080806001019150506200007a565b5080516003819055505062000775565b6000604051905090565b600080fd5b600080fd5b600080fd5b6000601f19601f8301169050919050565b7f4e487b7100000000000000000000000000000000000000000000000000000000600052604160045260246000fd5b62000198826200014d565b810181811067ffffffffffffffff82111715620001ba57620001b96200015e565b5b80604052505050565b6000620001cf62000134565b9050620001dd82826200018d565b919050565b600067ffffffffffffffff8211156200020057620001ff6200015e565b5b602082029050602081019050919050565b600080fd5b600080fd5b600067ffffffffffffffff8211156200023957620002386200015e565b5b62000244826200014d565b9050602081019050919050565b60005b838110156200027157808201518184015260208101905062000254565b60008484015250505050565b6000620002946200028e846200021b565b620001c3565b905082815260208101848484011115620002b357620002b262000216565b5b620002c084828562000251565b509392505050565b600082601f830112620002e057620002df62000148565b5b8151620002f28482602086016200027d565b91505092915050565b6000620003126200030c84620001e2565b620001c3565b9050808382526020820190506020840283018581111562000338576200033762000211565b5b835b818110156200038657805167ffffffffffffffff81111562000361576200036062000148565b5b808601620003708982620002c8565b855260208501945050506020810190506200033a565b5050509392505050565b600082601f830112620003a857620003a762000148565b5b8151620003ba848260208601620002fb565b91505092915050565b600060208284031215620003dc57620003db6200013e565b5b600082015167ffffffffffffffff811115620003fd57620003fc62000143565b5b6200040b8482850162000390565b91505092915050565b7f4e487b7100000000000000000000000000000000000000000000000000000000600052603260045260246000fd5b600081519050919050565b7f4e487b7100000000000000000000000000000000000000000000000000000000600052602260045260246000fd5b600060028204905060018216806200049657607f821691505b602082108103620004ac57620004ab6200044e565b5b50919050565b60008190508160005260206000209050919050565b60006020601f8301049050919050565b600082821b905092915050565b600060088302620005167fffffffffffffffffffffffffffffffffffffffffffffffffffffffffffffffff82620004d7565b620005228683620004d7565b95508019841693508086168417925050509392505050565b6000819050919050565b6000819050919050565b60006200056f6200056962000563846200053a565b62000544565b6200053a565b9050919050565b6000819050919050565b6200058b836200054e565b620005a36200059a8262000576565b848454620004e4565b825550505050565b600090565b620005ba620005ab565b620005c781848462000580565b505050565b5b81811015620005ef57620005e3600082620005b0565b600181019050620005cd565b5050565b601f8211156200063e576200060881620004b2565b6200061384620004c7565b8101602085101562000623578190505b6200063b6200063285620004c7565b830182620005cc565b50505b505050565b600082821c905092915050565b6000620006636000198460080262000643565b1980831691505092915050565b60006200067e838362000650565b9150826002028217905092915050565b620006998262000443565b67ffffffffffffffff811115620006b557620006b46200015e565b5b620006c182546200047d565b620006ce828285620005f3565b600060209050601f831160018114620007065760008415620006f1578287015190505b620006fd858262000670565b8655506200076d565b601f1984166200071686620004b2565b60005b82811015620007405784890151825560018201915060208501945060208101905062000719565b868310156200076057848901516200075c601f89168262000650565b8355505b6001600288020188555050505b505050505050565b610e2080620007856000396000f3fe608060405234801561001057600080fd5b50600436106100625760003560e01c806324108475146100675780632d35a8a2146100835780632e6997fe146100a15780633477ee2e146100bf57806353fa2e64146100f1578063f851a44014610122575b600080fd5b610081600480360381019061007c919061071f565b610140565b005b61008b610357565b604051610098919061078a565b60405180910390f35b6100a961035d565b6040516100b69190610945565b60405180910390f35b6100d960048036038101906100d49190610967565b610462565b6040516100e8939291906109de565b60405180910390f35b61010b60048036038101906101069190610a1c565b610524565b604051610119929190610a80565b60405180910390f35b61012a61056b565b6040516101379190610aea565b60405180910390f35b60008054906101000a900473ffffffffffffffffffffffffffffffffffffffff1673ffffffffffffffffffffffffffffffffffffffff163373ffffffffffffffffffffffffffffffffffffffff16146101ce576040517f08c379a00000000000000000000000000000000000000000000000000000000081526004016101c590610b77565b60405180910390fd5b6001816040516101de9190610bd3565b908152602001604051809103902060000160009054906101000a900460ff161561023d576040517f08c379a000000000000000000000000000000000000000000000000000000000815260040161023490610c36565b60405180910390fd5b6003548210610281576040517f08c379a000000000000000000000000000000000000000000000000000000000815260040161027890610ca2565b60405180910390fd5b600180826040516102929190610bd3565b908152602001604051809103902060000160006101000a81548160ff021916908315150217905550816001826040516102cb9190610bd3565b908152602001604051809103902060010181905550600282815481106102f4576102f3610cc2565b5b9060005260206000209060030201600201600081548092919061031690610d20565b9190505550817fb0fa784f6c9ce4625e023c4cb4b392b871163af5c58729e7a7b8f7cdaff54f178260405161034b9190610d68565b60405180910390a25050565b60035481565b60606002805480602002602001604051908101604052809291908181526020016000905b828210156104595783829060005260206000209060030201604051806060016040529081600082015481526020016001820180546103be90610db9565b80601f01602080910402602001604051908101604052809291908181526020018280546103ea90610db9565b80156104375780601f1061040c57610100808354040283529160200191610437565b820191906000526020600020905b81548152906001019060200180831161041a57829003601f168201915b5050505050815260200160028201548152505081526020019060010190610381565b50505050905090565b6002818154811061047257600080fd5b906000526020600020906003020160009150905080600001549080600101805461049b90610db9565b80601f01602080910402602001604051908101604052809291908181526020018280546104c790610db9565b80156105145780601f106104e957610100808354040283529160200191610514565b820191906000526020600020905b8154815290600101906020018083116104f757829003601f168201915b5050505050908060020154905083565b6001818051602081018201805184825260208301602085012081835280955050505050506000915090508060000160009054906101000a900460ff16908060010154905082565b60008054906101000a900473ffffffffffffffffffffffffffffffffffffffff1681565b6000604051905090565b600080fd5b600080fd5b6000819050919050565b6105b6816105a3565b81146105c157600080fd5b50565b6000813590506105d3816105ad565b92915050565b600080fd5b600080fd5b6000601f19601f8301169050919050565b7f4e487b7100000000000000000000000000000000000000000000000000000000600052604160045260246000fd5b61062c826105e3565b810181811067ffffffffffffffff8211171561064b5761064a6105f4565b5b80604052505050565b600061065e61058f565b905061066a8282610623565b919050565b600067ffffffffffffffff82111561068a576106896105f4565b5b610693826105e3565b9050602081019050919050565b82818337600083830152505050565b60006106c26106bd8461066f565b610654565b9050828152602081018484840111156106de576106dd6105de565b5b6106e98482856106a0565b509392505050565b600082601f830112610706576107056105d9565b5b81356107168482602086016106af565b91505092915050565b6000806040838503121561073657610735610599565b5b6000610744858286016105c4565b925050602083013567ffffffffffffffff8111156107655761076461059e565b5b610771858286016106f1565b9150509250929050565b610784816105a3565b82525050565b600060208201905061079f600083018461077b565b92915050565b600081519050919050565b600082825260208201905092915050565b6000819050602082019050919050565b6107da816105a3565b82525050565b600081519050919050565b600082825260208201905092915050565b60005b8381101561081a5780820151818401526020810190506107ff565b60008484015250505050565b6000610831826107e0565b61083b81856107eb565b935061084b8185602086016107fc565b610854816105e3565b840191505092915050565b600060608301600083015161087760008601826107d1565b506020830151848203602086015261088f8282610826565b91505060408301516108a460408601826107d1565b508091505092915050565b60006108bb838361085f565b905092915050565b6000602082019050919050565b60006108db826107a5565b6108e581856107b0565b9350836020820285016108f7856107c1565b8060005b85811015610933578484038952815161091485826108af565b945061091f836108c3565b925060208a019950506001810190506108fb565b50829750879550505050505092915050565b6000602082019050818103600083015261095f81846108d0565b905092915050565b60006020828403121561097d5761097c610599565b5b600061098b848285016105c4565b91505092915050565b600082825260208201905092915050565b60006109b0826107e0565b6109ba8185610994565b93506109ca8185602086016107fc565b6109d3816105e3565b840191505092915050565b60006060820190506109f3600083018661077b565b8181036020830152610a0581856109a5565b9050610a14604083018461077b565b949350505050565b600060208284031215610a3257610a31610599565b5b600082013567ffffffffffffffff811115610a5057610a4f61059e565b5b610a5c848285016106f1565b91505092915050565b60008115159050919050565b610a7a81610a65565b82525050565b6000604082019050610a956000830185610a71565b610aa2602083018461077b565b9392505050565b600073ffffffffffffffffffffffffffffffffffffffff82169050919050565b6000610ad482610aa9565b9050919050565b610ae481610ac9565b82525050565b6000602082019050610aff6000830184610adb565b92915050565b7f4f6e6c792061646d696e2063616e20706572666f726d2074686973206163746960008201527f6f6e000000000000000000000000000000000000000000000000000000000000602082015250565b6000610b61602283610994565b9150610b6c82610b05565b604082019050919050565b60006020820190508181036000830152610b9081610b54565b9050919050565b600081905092915050565b6000610bad826107e0565b610bb78185610b97565b9350610bc78185602086016107fc565b80840191505092915050565b6000610bdf8284610ba2565b915081905092915050565b7f557365722068617320616c726561647920766f7465642e000000000000000000600082015250565b6000610c20601783610994565b9150610c2b82610bea565b602082019050919050565b60006020820190508181036000830152610c4f81610c13565b9050919050565b7f496e76616c69642063616e6469646174652e0000000000000000000000000000600082015250565b6000610c8c601283610994565b9150610c9782610c56565b602082019050919050565b60006020820190508181036000830152610cbb81610c7f565b9050919050565b7f4e487b7100000000000000000000000000000000000000000000000000000000600052603260045260246000fd5b7f4e487b7100000000000000000000000000000000000000000000000000000000600052601160045260246000fd5b6000610d2b826105a3565b91507fffffffffffffffffffffffffffffffffffffffffffffffffffffffffffffffff8203610d5d57610d5c610cf1565b5b600182019050919050565b60006020820190508181036000830152610d8281846109a5565b905092915050565b7f4e487b7100000000000000000000000000000000000000000000000000000000600052602260045260246000fd5b60006002820490506001821680610dd157607f821691505b602082108103610de457610de3610d8a565b5b5091905056fea264697066735822122046e241c0b4973b38858b036bd41c778f21698ad3d371c49f29e9d28fc26dda4e64736f6c63430008180033",
  "linkReferences": {},
  "deployedLinkReferences": {}
}